:100000000C9424040C9441040C9441040C94410479
:100010000C9441040C9441040C9441040C9441044C
:100020000C9441040C9441040C9441040C94040578
:100030000C9441040C9441040C9441040C9441042C
:100040000C9441040C9441040C9441040C9441041C
:100050000C9441040C9441040C9441040C9441040C
:100060000C9441040C9441043C62723E3C62723E2A
:100070003C6120687265663D2F3E2D2667743B63A8
:100080006F6E74696E75653C2F613E0A004854546A
:10009000502F312E3020323030204F4B0D0A436F1D
:1000A0006E74656E742D547970653A207465787439
:1000B0002F68746D6C0D0A0D0A3C68313E457272F2
:1000C0006F723C2F68313E00485454502F312E300F
:1000D00020323030204F4B0D0A436F6E74656E74C2
:1000E0002D547970653A20746578742F68746D6C3E
:1000F0000D0A0D0A3C68313E323030204F4B3C2F08
:1001000068313E003C68323E4F4B3C2F68323E2007
:100110003C6120687265663D222F223E2D26677461
:100120003B636F6E74696E75653C2F613E3C2F704A
:100130003E0A0050617373773A203C696E707574A3
:1001400020747970653D70617373776F726420738A
:10015000697A653D38206E616D653D70773E3C691A
:100160006E70757420747970653D68696464656E3D
:10017000206E616D653D7372742076616C75653DAE
:10018000313E3C696E70757420747970653D73758D
:10019000626D69742076616C75653D22737461725D
:1001A00074207761746368646F67206E6F77223E96
:1001B0003C2F666F726D3E3C68723E0050617373F7
:1001C000773A203C696E70757420747970653D7063
:1001D000617373776F72642073697A653D38206E3E
:1001E000616D653D70773E3C696E70757420747901
:1001F00070653D68696464656E206E616D653D7310
:1002000074702076616C75653D313E3C696E707529
:100210007420747970653D7375626D6974207661C0
:100220006C75653D2273746F7020776174636864C8
:100230006F67206E6F77223E3C2F666F726D3E3C7B
:1002400068723E003C68723E3C666F726D2061636E
:1002500074696F6E3D2F61636B206D6574686F64A8
:100260003D6765743E0050617373773A203C696E58
:1002700070757420747970653D70617373776F72F7
:10028000642073697A653D38206E616D653D7077D5
:100290003E3C696E70757420747970653D68696460
:1002A00064656E206E616D653D7273742076616C5D
:1002B00075653D313E3C696E70757420747970656A
:1002C0003D7375626D69742076616C75653D22724F
:1002D00065626F6F7420686F7374206E6F77223E53
:1002E0003C2F666F726D3E0A003C666F726D206136
:1002F0006374696F6E3D2F61636B206D6574686F09
:10030000643D6765743E003C68323E416374696FCA
:100310006E733C2F68323E004D656E753A203C612D
:1003200020687265663D2F3E6D61696E206D656E59
:10033000753C2F613E207C203C6120687265663DE3
:10034000687474703A2F2F74757867726170686979
:1003500063732E6F72672F6877642E68746D6C3EBE
:1003600068656C703C2F613E003C696E707574204E
:10037000747970653D7375626D69742076616C7512
:10038000653D226368616E6765223E3C2F666F7231
:100390006D3E3C68723E003E3C62723E0A006F77E2
:1003A0006E2049503A203C696E70757420747970E3
:1003B000653D746578742073697A653D3132206ECD
:1003C000616D653D6E69702076616C75653D006E8E
:1003D00065772070773A203C696E70757420747967
:1003E00070653D70617373776F72642073697A65AD
:1003F0003D38206E616D653D6E70773E0A006F6C12
:10040000642070773A203C696E707574207479703E
:10041000653D70617373776F72642073697A653DAF
:1004200038206E616D653D70773E0A003C666F72E4
:100430006D20616374696F6E3D2F697063206D6517
:1004400074686F643D6765743E003C68323E436883
:10045000616E6765206F776E2049502F70617373EE
:10046000776F72643C2F68323E3C7072653E004D7F
:10047000656E753A203C6120687265663D2F3E6D61
:1004800061696E206D656E753C2F613E207C203C5D
:100490006120687265663D687474703A2F2F7475B8
:1004A0007867726170686963732E6F72672F6877FF
:1004B000642E68746D6C3E68656C703C2F613E0004
:1004C0000A3C68723E56657273696F6E20322E3137
:1004D00035003E53656E642070696E670A202020E7
:1004E000202020202020202070773A203C696E7048
:1004F000757420747970653D70617373776F726481
:100500002073697A653D38206E616D653D70773E78
:100510000A3C696E70757420747970653D737562FC
:100520006D69742076616C75653D226368616E67E4
:1005300065223E3C2F666F726D3E00636865636B9B
:100540006564003E73203C696E7075742074797028
:10055000653D636865636B626F78206E616D653DB4
:1005600073702076616C75653D3120003E0A7069BC
:100570006E6720696E74657276616C3A203C696EB4
:1005800070757420747970653D7465787420736932
:100590007A653D33206E616D653D70692076616CD2
:1005A00075653D00206D6F6E69746F7265642049DA
:1005B000503A203C696E70757420747970653D7492
:1005C0006578742073697A653D3132206E616D659E
:1005D0003D69702076616C75653D005D0A3C627214
:1005E0003E3C68723E3C7072653E3C666F726D20A8
:1005F000616374696F6E3D2F6D6F64206D65746803
:100600006F643D6765743E002C207061737369767A
:1006100065002C20616374697665002C2073746F0B
:1006200070706564003C2F666F6E743E205B72656F
:1006300073657420636E743A003C666F6E74206359
:100640006F6C6F723D236666303030303E003C6622
:100650006F6E7420636F6C6F723D2330306666304E
:10066000303E4F4B005374617475733A20003C6800
:10067000323E486F7374207761746368646F673CBF
:100680002F68323E004D656E753A203C61206872DD
:1006900065663D2F6E6F773E616374696F6E733C64
:1006A0002F613E207C203C6120687265663D2F638F
:1006B0006E663E636F6E6669673C2F613E207C20EC
:1006C0003C6120687265663D687474703A2F2F74BF
:1006D000757867726170686963732E6F72672F68CF
:1006E00077642E68746D6C3E68656C703C2F613E5B
:1006F000207C203C6120687265663D2F3E726566F5
:100700007265736820706167653C2F613E004854D4
:1007100054502F312E3020323030204F4B0D0A43B1
:100720006F6E74656E742D547970653A20746578B7
:10073000742F68746D6C0D0A507261676D613A2098
:100740006E6F2D63616368650D0A5265667265732D
:10075000683A2036300D0A0D0A00485454502F31A3
:100760002E3020323030204F4B0D0A436F6E7465AF
:100770006E742D547970653A20746578742F68749E
:100780006D6C0D0A507261676D613A206E6F2D635A
:10079000616368650D0A0D0A00616464206120745C
:1007A0007261696C696E6720736C61736820746F25
:1007B000207468652075726C0A003C68313E3330E5
:1007C00031204D6F766564205065726D616E656E87
:1007D000746C793C2F68313E0A002F0D0A436F6E0E
:1007E00074656E742D547970653A20746578742F31
:1007F00068746D6C0D0A507261676D613A206E6F9E
:100800002D63616368650D0A0D0A00485454502F2A
:10081000312E3020333031204D6F766564205065A5
:10082000726D616E656E746C790D0A4C6F636174E4
:10083000696F6E3A200000010800060400014500BF
:10084000005400004000020111241FBECFEFD4E08D
:10085000DEBFCDBF11E0A0E0B1E0E0E1F5E202C013
:1008600005900D92AA37B107D9F714E0AAE7B1E0D5
:1008700001C01D92A839B107E1F70E9416090C9436
:1008800086120C9400009C01F999FECF32BD21BD67
:10089000F89A80B508959C01F999FECF1FBA32BD30
:1008A00021BD60BD0FB6F894FA9AF99A0FBE08956B
:1008B000DC01FB0140E010C08081981759F43196AB
:1008C0008081882341F411968C918D3319F4FB01BA
:1008D00041E001C0FB0111969C91992329F09032CF
:1008E00019F0442349F304C0413011F080E0089529
:1008F0002A2FE8E6F4E002C0919311968A2F821B1A
:100900009C91992341F0903231F0963221F034E0FD
:10091000E038F30789F7E82FF0E0E859FB4F108241
:100920000895982F80538A3068F08153863010F4F0
:10093000865F0895892F8154863010F080E00895F5
:10094000892F87530895CF93DF93DC01EC0136C0E4
:100950008B3211F480E230C0853271F5FD013196A1
:10096000DF0111969081392F30533A3070F0892F82
:100970008156863010F4375208C0892F8154863052
:1009800010F030E002C0392F37532181922F90535D
:100990009A3070F0822F8156863010F4975208C03A
:1009A000822F8154863010F090E002C0922F97532E
:1009B000832F8295807F892B899311968C91882330
:1009C00039F61882DF91CF9108955F9A8091800166
:1009D0008F5F8093800110927C0181E080937F0182
:1009E00008951092850010928400109280008DE08E
:1009F000809381008FE2809389008FEA8093880042
:100A000082E080936F0008951F920F920FB60F92AD
:100A100011242F933F934F935F936F937F938F9303
:100A20009F93AF93BF93EF93FF9380917E018130AB
:100A300031F480917701882311F010927B0180912D
:100A40007A01823078F010927A0180917D018823BA
:100A500049F010927D018FE691E06BE571E040E591
:100A60000E94670B80917A01813019F482E08093B3
:100A70007A0180917F01823019F45F9810927F0192
:100A800080917F01813019F482E080937F01809111
:100A900077018A3078F080917C01882359F05F9A41
:100AA000809180018F5F8093800110927C0181E0B2
:100AB00080937F018091760190916301981718F4DB
:100AC00081E08093760180917601891719F481E0A5
:100AD00080937501809176018823D9F0809164011B
:100AE000882391F480917501882371F080917701BA
:100AF0008F5F8093770110927501809177018F3F0E
:100B000019F481E080937701809176018F5F809363
:100B1000760190917E019F5F90937E0180917B0191
:100B2000823021F49F3110F010927E018091760185
:100B30008D3F18F081E080937601FF91EF91BF9196
:100B4000AF919F918F917F916F915F914F913F9165
:100B50002F910F900FBE0F901F901895BC0185E646
:100B600091E047E050E00E94BC119C0180E0232B03
:100B700009F481E0089583E891E060E070E04AE5DF
:100B800057E00E94840C08950F931F938C0183E813
:100B900091E060E070E04AE557E00E94840CBC01FF
:100BA000C80144E051E00E94840C1F910F91089508
:100BB000CF93DF93EC0183E891E060E070E04AE5D9
:100BC00057E00E94840CBC01CE0148E153E00E9432
:100BD000840CBC01CE0147E053E00E94840CBC01B0
:100BE000CE0149EE52E00E94840CBC01CE0146E6E3
:100BF00052E00E94840CBC01CE0144E452E00E9409
:100C0000840CBC0180917601882321F0CE014CEB4D
:100C100051E003C0CE0143E351E00E94840CDF9118
:100C2000CF9108950F931F938C0160E070E04BE02B
:100C300058E00E94840CBC01C80145E651E00E94C6
:100C4000970CBC01C8014AED57E00E94840CBC011E
:100C5000C8014AEB57E00E94840CBC01C80149E975
:100C600057E00E94840C1F910F910895F999FECFCF
:100C70001FBA12BC11BC83E180BD0FB6F894FA9A7A
:100C8000F99A0FBE81E090E06BE571E044E050E03E
:100C90002BE434E00E94E61186E090E06FE571E01D
:100CA00044E050E02BE434E00E94E611209163011F
:100CB000F999FECF1FBA8BE090E092BD81BD20BDB7
:100CC0000FB6F894FA9AF99A0FBE20916401F99937
:100CD000FECF1FBA8CE090E092BD81BD20BD0FB663
:100CE000F894FA9AF99A0FBE10926C018DE090E098
:100CF00065E671E04AE050E02BE434E00E94E61142
:100D00000895A0E0B0E0E7E8F6E00C9444127C011E
:100D1000B42EC22ED02EEB0100E010E017C0B701B8
:100D2000610F711D888190E04D2D50E00E940212EC
:100D300001C0192FF701E10FF11D8081912F9F5FF5
:100D40008823B9F7C082192F0F5F21960B1538F34E
:100D50001150E10EF11CF7011082CDB7DEB7E9E0CA
:100D60000C946012AF92BF92CF92DF92EF92FF92FB
:100D70000F937C0183E891E060E070E04AE557E082
:100D80000E94840CBC01C7014FE654E00E94840C11
:100D9000BC01C7014AE454E00E94840CBC01C701B5
:100DA0004CE254E00E94840CBC01C7014EEF53E0BA
:100DB0000E94840CBC01C7014FEC53E00E94840CDC
:100DC000BC01C7014EE953E00E94840C5C0188E637
:100DD000C82E84E0D82EC6016BE571E044E02EE217
:100DE0000AE00E948106C701B501A6010E94970C86
:100DF000BC01C70147E953E00E94840CBC01C70154
:100E000049E653E00E94840C0F91FF90EF90DF9031
:100E1000CF90BF90AF900895EF92FF920F931F93E2
:100E2000CF93DF93EC0160E070E04EE057E00E946A
:100E3000840CBC01CE0145E856E00E94840CBC0144
:100E4000CE014EE656E00E94840CBC01CE0145E680
:100E500056E00E94840CBC0180917701882331F414
:100E6000CE014EE456E00E94840C15C0CE0149E349
:100E700056E00E94840C8C018091770190E068E636
:100E800074E04AE050E00E940212CE01B80148E648
:100E900054E00E94970CBC01CE0145E256E00E944E
:100EA000840C8C018091800190E068E674E04AE057
:100EB00050E00E940212CE01B80148E654E00E94C0
:100EC000970CBC0180917601882321F4CE014BE17F
:100ED00056E00BC080917C01882321F0CE0142E1D5
:100EE00056E003C0CE0148E056E00E94840CBC01ED
:100EF000CE014BED55E00E94840CBC01CE0144EACA
:100F000055E00E94840C7C0188E694E06FE571E076
:100F100044E02EE20AE00E948106CE01B70148E6D5
:100F200054E00E94970CBC01CE014CE655E00E94B3
:100F3000840C8C018091630190E068E674E04AE0E3
:100F400050E00E940212CE01B80148E654E00E942F
:100F5000970CBC01CE0143E455E00E94840CBC0117
:100F600080916401882331F0CE014BE355E00E946B
:100F7000840CBC01CE0142ED54E00E94840CBC0103
:100F8000CE0140EC54E00E94840CCDB7DEB7E6E021
:100F90000C946312EF92FF921F93CF93DF937C0127
:100FA000EB0180E090E0F701E80FF91F1082019655
:100FB00084309105C1F720E030E010E019C0211520
:100FC000310541F4842F992787FD9095C0970A97A2
:100FD00008F49E014E3259F41882C9010E949711FB
:100FE000F701E10FF11D80831F5F20E030E02196C3
:100FF0004881442311F0143010F31882133011F09B
:1010000081E006C0C9010E949711F701838380E047
:10101000DF91CF911F91FF90EF900895CF93DF93D1
:10102000EC0180E091E090938201809381018BE05C
:1010300091E0BE0143E050E00E94BC11009711F422
:1010400083E0F1C08FE091E0BE0143E050E00E94F8
:10105000BC11009711F486E0E6C083E191E0BE0187
:1010600043E050E00E94BC11009779F5CE0167E1A2
:1010700071E00E945804882309F4D4C088E694E003
:101080000E94A30488E694E00E94AE05882309F438
:10109000C9C0CE016AE171E00E945804882311F0B2
:1010A00081E0C1C0CE016EE171E00E945804882346
:1010B00011F084E0B8C0CE0162E271E00E945804F1
:1010C000882309F4AFC085E0AEC086E291E0BE019E
:1010D00043E050E00E94BC110097E9F5CE0167E1C2
:1010E00071E00E945804882309F49CC088E694E0CB
:1010F0000E94A30488E694E00E94AE05882309F4C8
:1011000091C0CE016AE271E00E945804882369F020
:1011100088E694E00E94A3048BE591E068E674E021
:101120000E94CA07882309F046C0CE0169E371E036
:101130000E945804882309F475C088E694E00E9450
:10114000A30410926F0485E691E068E674E00E94C3
:10115000B51187E068C08DE391E0BE0143E050E047
:101160000E94BC11009709F057C0CE0167E171E001
:101170000E945804882309F455C088E694E00E9430
:10118000A30488E694E00E94AE05882309F44AC0CF
:10119000CE0161E471E00E945804882379F088E66A
:1011A00094E00E94A3048FE591E068E674E00E9459
:1011B000CA07882319F08EE291E030C085E0809361
:1011C000630110926401CE0164E471E00E9458044E
:1011D0008823B1F088E694E00E94A30488E694E0B6
:1011E0000E94971180936301823018F482E080930B
:1011F0006301809163018B3F18F08AEF8093630154
:10120000CE0167E471E00E945804882319F081E060
:101210008093640182E007C08AE491E090938201A8
:101220008093810180E0DF91CF910895FF920F9329
:101230001F93CF93DF9380E8809361001092610049
:1012400082E3982F9A95F1F7529856985E9A8A956C
:10125000F1F7F999FECF12BC11BCF89A80B5833131
:1012600009F036C04E9B34C08BE591E061E070E040
:1012700044E050E023E434E00E94CA118FE591E09D
:1012800066E070E044E050E023E434E00E94CA11DC
:10129000F999FECF8BE090E092BD81BDF89A80B5C0
:1012A00080936301F999FECF8CE090E092BD81BDFF
:1012B000F89A80B58093640185E691E06DE070E076
:1012C0004AE050E023E434E00E94CA1110926C011D
:1012D0008FE691E00E94C20F82E00E94BC0F12E3F1
:1012E000812F8A95F1F7579A5F9884E166E774E059
:1012F0000E949E0F1A95F1F78FE691E06BE571E081
:1013000040E50E94670B10928500109284001092B5
:1013100080008DE0809381008FE2809389008FEAC6
:101320008093880082E080936F00789492E0F92E99
:1013300001E080917A018823C9F50E940311882376
:10134000A9F580916401882361F080917B01882355
:1013500041F483E891E06FE571E00E945D0DF09249
:101360007B0180916401882309F110917B01113088
:10137000E9F4809175018823C9F01092750183E822
:1013800091E06FE571E042E40E94F20C80917601F9
:101390008F5F80937601809177018F5F80937701D3
:1013A000809177018F3F11F41093770184EE92E0E2
:1013B00063E871E00E940911EC01009709F4B9CFCC
:1013C00083E891E0BE010E948D0B8823E9F083E859
:1013D00091E00E94B10B882321F083E891E00E9404
:1013E000B40E83E891E00E94A90B882309F4A1CFF1
:1013F00083E891E06FE571E00E94B50C882309F461
:1014000098CF00937B0195CF83E891E0BE010E94C5
:10141000B90B882309F48DCF10919A011130A1F4F2
:101420008091A501882381F48091AD01823461F41B
:1014300083E891E06FE571E00E94D90C882321F0E8
:101440001092770110937C0110919A011130B9F438
:101450008091A501883009F06CCF83E891E06FE5B9
:1014600071E00E94D90C882321F01092770110932B
:101470007C0183E891E0BE010E948C0E5ACF1630A9
:1014800009F057CF8091A701882309F052CF8091AE
:10149000A801803509F04DCF8091B20181FF05C0D0
:1014A00083E891E00E940E0E44CF84FF42CF83E890
:1014B00091E00E94610C0E94500CEC01009749F4ED
:1014C0008091B20180FF35CF83E891E00E94D60D74
:1014D00030CFBC016D577E4F83E591E044E050E092
:1014E0000E94BC11009749F083E891E060E070E051
:1014F00048EC50E00E94840C6AC0BE0169577E4FE0
:1015000088E591E042E050E00E94BC11009729F488
:1015100083E891E00E940C075AC0CE0188579E4F85
:101520000E940E08182F00937A0183E891E060E092
:1015300070E04DE850E00E94840CBC0140918101B4
:101540005091820183E891E00E94970CBC0183E8EE
:1015500091E048E650E00E94840CEC01113059F40F
:101560005F9A809180018F5F8093800110927C014F
:1015700000937F0104C0123039F40E94360683E8DC
:1015800091E00E94C40523C0173051F40E94360632
:1015900083E891E00E94C405EC0100937D0118C02E
:1015A000153019F400937601EACF143019F4109233
:1015B0007601E5CF133029F483E891E00E94D80545
:1015C00006C0163029F483E891E00E94B206EC01CF
:1015D00083E891E00E94D60D83E891E0BE010E946D
:1015E000AC0DA7CEA0E0B0E0E8EFFAE00C94451215
:1015F0006C01413081F4685070407B0100E010E0E4
:10160000685F7F4F21E130E040E050E0E20EF31EE2
:10161000041F151F15C0423021F0EE24FF2487015E
:101620000FC0685070407B0100E010E0685F7F4FA2
:1016300086E090E0A0E0B0E0E80EF91E0A1F1B1F54
:10164000F601EB0116C0808190E0A0E0B0E0BA2F77
:10165000A92F982F8827218130E040E050E0822B8D
:10166000932BA42BB52BE80EF91E0A1F1B1F3296D5
:101670002297C230D10538F7FB01EE7FEC0DFD1D3E
:1016800060FF15C0808190E0A0E0B0E0BA2FA92FE4
:10169000982F882708C02FEF3FEF40E050E0E2226C
:1016A000F32204231523E80EF91E0A1F1B1FC8018D
:1016B000AA27BB270097A105B10569F797012095D7
:1016C0003095C901CDB7DEB7E8E00C946112CF9335
:1016D000DF93EC014093780120E030E0F901EF5610
:1016E000FB4FDB01A20FB31F8C9180832F5F3F4F15
:1016F0002430310599F720E030E0F901EB57FB4F3A
:10170000DE01A20FB31F8C9180832F5F3F4F2630E5
:10171000310599F7DF91CF910895FC016932710588
:10172000B0F08485883099F48585863081F4DF01B6
:101730009696E1E9F4E09C918081981741F4119626
:10174000319684E0E539F807B1F781E0089580E04B
:10175000089520E0FC018589823009F421E0822F80
:10176000089520E0FC018589813009F421E0822F71
:101770000895CF93DF93FC016A327105C8F0848528
:101780008830B1F48585882399F48685853481F481
:10179000DF01E1E9F4E0ED019E8D8081981741F4CD
:1017A0001196319684E0E539F807A9F781E001C088
:1017B00080E0DF91CF910895FC01A5E8B4E0868137
:1017C00080838D918683319684E0AB38B807B9F772
:1017D00008950F931F938C01FC01108E118E80E4ED
:1017E000848B158A868BC8010E9664E170E040E018
:1017F0000E94F20AF801908F818F1F910F91089536
:10180000AC01FC01A1E9B4E0828D868F8D91828FBD
:10181000319684E0A539B807B9F7CA010E94E90BEF
:101820000895CF93DF93FC0182A184A312A283A128
:1018300085A313A28091780183A3DF01999694E098
:101840008C91680F711DED018C816C83222311F046
:101850008C9301C01C9291501197992319F0672F16
:101860007727EECF222349F416A217A2809179019F
:1018700080A711A68E5F8093790112AA13AA442330
:1018800051F082E086AB84E087AB85E080AF80E8F2
:1018900081AF80E601C080E586A7DF91CF910895F2
:1018A0008091810490918204892B19F420E030E02A
:1018B00006C020918304309184042E5D3F4FC901FE
:1018C0000895FC01908980E0218930E0282B392B94
:1018D00086A582958F7090E0880F991F880F991FB9
:1018E000909384048093830424513040281B390B47
:1018F00030938204209381041216130624F0109270
:1019000082041092810408956A5C7F4FDC01A60F67
:10191000B71F6653704003C08D936F5F7F4FFA010E
:101920004F5F5F4F84918823B9F7CB010895FA0187
:101930006A5C7F4FDC01A60FB71F6653704004C07E
:101940008D936F5F7F4F319680818823C9F7CB01DC
:101950000895DC01FA0105C084918D9331966150A0
:10196000704061157105C1F70895CF93DF93EC01C5
:10197000DC0120E030E0AB01420F531FFD01948DEC
:10198000FA018081981711F080E010C02F5F3F4F5F
:1019900011962430310579F7EBE8F4E08E898193D4
:1019A000219684E0E139F807C9F781E0DF91CF9112
:1019B0000895CF93DF93DC0120E030E0FB01E20FDC
:1019C000F31FED019A8D8081981711F080E007C018
:1019D0002F5F3F4F11962430310581F781E0DF9171
:1019E000CF9108951F93CF93DF93EC01142FAC0197
:1019F000DC0120E030E0F901E557FB4F80818C935A
:101A0000F901EB57FB4F8081FD0186832F5F3F4F2C
:101A100011962630310579F788E08C871D86DE0126
:101A20002EE338E0F9018491FD0186872F5F3F4F57
:101A30001196F8E028343F07A9F720E030E0FB01D9
:101A4000E20FF31F8081FA01868FF901EF56FB4FF9
:101A50008081FA01828F2F5F3F4F4F5F5F4F2430AD
:101A6000310569F7CE010E94E90B9E012E5D3F4FC3
:101A700088E08AA31BA21CA21DA285E08EA38091F0
:101A800094048FA318A681E089A7FE01BA9680E08E
:101A900011938F5F8833E1F7C90160E470E040E0A3
:101AA0000E94F20A9CA38DA382E690E0BE010E94F0
:101AB0009110DF91CF911F9108950F931F93CF93B2
:101AC000DF93EC01AC0125E834E0FC01D9019FEF84
:101AD00090838D918683319684E0AB38B807C1F747
:101AE00088E08C8786E08D87DE0106E318E0F80148
:101AF0008491FD0186870F5F1F4F1196F8E00E332A
:101B00001F07A9F7F90181919F01FA01868B10A2A5
:101B10004F5F5F4FF4E02B383F07A1F7DE015C9683
:101B200020E030E0FB01E20FF31F8081FD0182879E
:101B3000F901EF56FB4F80818D932F5F3F4F24308B
:101B4000310581F78AE290E0BE010E949110DF9199
:101B5000CF911F910F910895EF92FF920F931F93D2
:101B60008C017B0189E1F80187A7CB018896908BD6
:101B7000818BC8010E94E90BF80112AA13AA8CE11B
:101B800090E0E80EF91EC8014A96B70142E00E94B3
:101B9000F20AF80192AB83ABC7014A96B8010E94E2
:101BA00091101F910F91FF90EF900895CF93DF93C5
:101BB000EC01FC01A5E8B4E0868180838D918683E9
:101BC000319684E0AB38B807B9F780E18FA7609110
:101BD0008104709182046115710521F4CE0161E0E8
:101BE00070E001C0CE0140E021E00E94110C188A93
:101BF00088E2898BCE010E94000CCE014A966CE1EE
:101C000070E042E00E94F20A9AAB8BAB86E390E070
:101C1000BE010E949110DF91CF910895CF93DF9381
:101C2000EC01FC01A5E8B4E0868180838D91868378
:101C3000319684E0AB38B807B9F7188A8CE2898B03
:101C4000CE010E94000C82E18FA7CE0161E070E01E
:101C500041E020E00E94110CCE014A9660E270E063
:101C600042E00E94F20A9AAB8BAB8AE390E0BE019D
:101C70000E949110DF91CF910895A0E0B0E0E3E4DD
:101C8000FEE00C944612EC017B01D22E132FFC01D6
:101C9000A5E8B4E0868180838D918683319684E0C7
:101CA000AB38B807B9F7042F4D3D08F00CED188A92
:101CB000045E098BCE010E94000C8AA18CA38BA12B
:101CC0008DA31AA3DBA21EA204510FA3085018A6CD
:101CD00019A6DE019A9620E030E007C0F701E20F76
:101CE000F31F80818D932F5F3F4F2017B8F310E0D3
:101CF000005F1F4FCE014A96B80141E00E94F20AF0
:101D000098A789A7C8014A96BE010E949110CDB735
:101D1000DEB7E7E00C9462120F931F93CF93DF932B
:101D2000EC018B01FC01A5E8B4E0868180838D91F4
:101D30008683319684E0AB38B807B9F7CE010E94AC
:101D4000000C1AA28CA1883F18F08DA18F5F8DA383
:101D50008CA1885F8CA3C801BE010E949110DF9105
:101D6000CF911F910F910895CF93DF93AC01EC01B8
:101D700025E834E0FC01D901868180838D9186833A
:101D8000319684E0AB38B807B9F7FA01148A82E0DB
:101D9000858B8E8988A3F90181919F018E8B219675
:101DA000F4E02B383F07A9F7FA017C96A1E9B4E0EB
:101DB000808182878D91819384E0A539B807C1F72E
:101DC0008AE290E0BA010E949110DF91CF910895CC
:101DD0002A98962F9F71982B9EBD0DB407FEFDCFBC
:101DE0001EBC0DB407FEFDCF67FF04C01EBC0DB4C2
:101DF00007FEFDCF2A9A8EB508952A986F71682B39
:101E00006EBD0DB407FEFDCF4EBD0DB407FEFDCF78
:101E10002A9A0895AC01FB012A988AE38EBD0DB47D
:101E200007FEFDCF9A01DF0108C01EBC0DB407FEFE
:101E3000FDCF215030408EB58D9321153105A9F786
:101E4000E40FF51F10822A9A08959C01FB012A983D
:101E50008AE78EBD0DB407FEFDCF08C080818EBD20
:101E60000DB407FEFDCF21503040319621153105CC
:101E7000A9F72A9A0895482F282F30E0207630704D
:101E80008091950490E028173907F9F02A988FEB94
:101E90008EBD0DB407FEFDCF83E08EBD0DB407FEF1
:101EA000FDCF2A9A2A988FE98EBD0DB407FEFDCF8B
:101EB00085E0359527958A95E1F72EBD0DB407FE8F
:101EC000FDCF2A9A40764093950408951F93182FCA
:101ED0000E943B0F80E0612F0E94E80E1F91089541
:101EE0000F931F93182F062F0E943B0F2A981F71E4
:101EF00010641EBD0DB407FEFDCF0EBD0DB407FE70
:101F0000FDCF2A9A1F910F910895682F84ED0E94AA
:101F1000700F82ED61E00E94700F8EE38A95F1F7F9
:101F20008AEE0E94660F80FDFBCF82ED60E00E948A
:101F3000700F89ED0E94660F90E008950F931F9334
:101F4000982F162F072F84ED692F0E94700F86EDB2
:101F5000612F0E94700F87ED602F0E94700F1EE3AB
:101F600003C0812F8A95F1F78AEE0E94660F80FDEB
:101F7000F8CF1F910F910895682F677085E70E9431
:101F8000700F0895CF93DF93EC01229A2A9A84B1BF
:101F9000886284B924982B982D9880E58CBD8DB5E6
:101FA00081608DBD2A988FEF8EBD0DB407FEFDCFE9
:101FB0008FEF8EBD0DB407FEFDCF2A9A8DEC8A956A
:101FC000F1F7109297041092960488E060E00E9466
:101FD000700F89E060E00E94700F8CE060E00E946A
:101FE000700F8DE060E00E94700F8AE06EEF0E943B
:101FF000700F8BE069E10E94700F84E06FEF0E9428
:10200000700F85E069E10E94700F86E06FEF0E941B
:10201000700F87E06FE10E94700F88E360EB0E9411
:10202000700F88E26FE30E94700F89E260E30E9404
:10203000700F80E369EF0E94700F81E367EF0E94E9
:10204000700F80EC6DE00E94700F81EC60E00E94E8
:10205000700F2A9882E88EBD0DB407FEFDCF82E393
:102060008EBD0DB407FEFDCF2A9A86EC62E10E9478
:10207000700F87EC6CE00E94700F84EC62E10E94AC
:10208000700F8AEC6CED0E94700F8BEC65E00E9483
:10209000700F84EE68810E94700F85EE69810E9446
:1020A000700F82EE6A810E94700F83EE6B810E9436
:1020B000700F80EE6C810E94700F81EE6D810E9426
:1020C000700F80E160E071E00E949E0F8FE10E943E
:1020D0003B0F2A988BE98EBD0DB407FEFDCF80EC37
:1020E0008EBD0DB407FEFDCF2A9A2A988FE98EBDCA
:1020F0000DB407FEFDCF84E08EBD0DB407FEFDCF0D
:102100002A9ADF91CF91089582E70E94660F089581
:1021100081E10E94850F20E0892B09F021E0822FC8
:102120000895A0E0B0E0E7E9F0E10C944612EC017C
:102130008B013FE9D32E20E8F22E9FEBE92E19C048
:102140008CE10E94660F81FF14C02A98DEBC0DB49A
:1021500007FEFDCFFEBC0DB407FEFDCF2A9A2A98DC
:10216000EEBC0DB407FEFDCFFEBC0DB407FEFDCFE7
:102170002A9A80E06FE10E94E80E83FDE1CF82E0C1
:102180006FEF0E94700F83E069E10E94700FCE0133
:102190008150682F86E00E94700F9E012150364EBC
:1021A00087E0632F0E94700F2A988AE78EBD0DB4D6
:1021B00007FEFDCF1EBC0DB407FEFDCF2A9A2A985C
:1021C0008AE78EBD0DB407FEFDCF09C0F8018081FE
:1021D0008EBD0DB407FEFDCF21970F5F1F4F2097D7
:1021E000A9F72A9A2A988FE98EBD0DB407FEFDCF74
:1021F00088E08EBD0DB407FEFDCF2A9ACDB7DEB7BD
:10220000E7E00C94621289E30E94660F811181E07D
:102210000895A0E0B0E0EFE0F1E10C9441125C0120
:102220004B0189E30E94660F882319F4C0E0D0E0D7
:1022300078C0609196041091970480E00E94700F1E
:1022400081E0612F0E94700F8AE360E00E94E80E37
:10225000182F8AE360E00E94E80E382F20E0E12E7C
:10226000FF24E22AF32AF0929704E09296048AE38C
:1022700060E00E94E80EC82E8AE360E00E94E80E4B
:10228000D82E8AE360E00E94E80E082F10E08AE36F
:1022900060E00E94E80E382F20E0202B312B27FD34
:1022A00003C0C0E0D0E011C0CC2DD0E09D2D80E077
:1022B000C82BD92BC501019724978C179D0708F4CB
:1022C000EC01CE01B4010E940A0FDE2C8CE06E2DD1
:1022D0000E94700F8DE06F2D0E94700F87010150DA
:1022E000104089E10F3F180738F08CE06EEF0E9434
:1022F000700F8DE069E107C0DA948CE06D2D0E94CB
:10230000700F8DE0612F0E94700F2A988EE98EBDAC
:102310000DB407FEFDCF80E48EBD0DB407FEFDCFEA
:102320002A9ACE01CDB7DEB7ECE00C945D12FC0129
:1023300088279927E89421912032E9F3293010F079
:102340002E30C8F32B3241F02D3239F4689404C09A
:102350000E942312820F911D219120532A30C0F335
:102360001EF4909581959F4F0895FB01DC0101902B
:102370000D920020E1F70895FB01DC01415050402F
:1023800030F08D910190801919F40020B9F7881B65
:10239000990B0895A0E0B0E0E0EDF1E10C94451256
:1023A0007C01EB018A01690109C0CE012196F60189
:1023B0000995F70181937F01015010400115110526
:1023C000A1F7CDB7DEB7E8E00C946112A0E0B0E071
:1023D000ECEEF1E10C944512EC017B018A016901FC
:1023E00009C0CE012196F70161917F01F60109959F
:1023F0000150104001151105A1F7CDB7DEB7E8E097
:102400000C946112FB019F01E8944230C4F0453204
:10241000B4F44A3029F497FB1EF4909581959F4FB0
:10242000642F77270E947212805D8A330CF0895DD9
:102430008193CB010097A1F716F45DE251931082CE
:10244000C9010C942B127AE0979F902D879F802DC5
:10245000910D11240895DC01FC01672F7191772300
:10246000E1F7329704C07C916D9370836291AE174F
:10247000BF07C8F308952F923F924F925F926F92D9
:102480007F928F929F92AF92BF92CF92DF92EF9204
:10249000FF920F931F93CF93DF93CDB7DEB7CA1B85
:1024A000DB0B0FB6F894DEBF0FBECDBF09942A88B0
:1024B000398848885F846E847D848C849B84AA8458
:1024C000B984C884DF80EE80FD800C811B81AA81E5
:1024D000B981CE0FD11D0FB6F894DEBF0FBECDBFB0
:1024E000ED010895AA1BBB1B51E107C0AA1FBB1F2A
:1024F000A617B70710F0A61BB70B881F991F5A9590
:10250000A9F780959095BC01CD010895F894FFCF6F
:10251000696E76616C6964207077006E6F77006316
:102520006E660061636B0070770072737400737481
:10253000700073727400697063006E697000696E78
:1025400076616C6964206970006E7077006D6F64ED
:1025500000697000706900737000696E762E2075D6
:10256000726C0047455420002F20000A00001B0A0F
:102570000000071E0173656372657400000000545B
:0A2580005558110027010101500A0F
:00000001FF
